{
  "contractName": "UserContract",
  "abi": [
    {
      "constant": true,
      "inputs": [
        {
          "name": "_name",
          "type": "string"
        },
        {
          "name": "_strPassword",
          "type": "string"
        }
      ],
      "name": "signUp",
      "outputs": [
        {
          "name": "",
          "type": "bool"
        }
      ],
      "payable": false,
      "stateMutability": "view",
      "type": "function"
    },
    {
      "constant": true,
      "inputs": [],
      "name": "id",
      "outputs": [
        {
          "name": "",
          "type": "uint256"
        }
      ],
      "payable": false,
      "stateMutability": "view",
      "type": "function"
    },
    {
      "anonymous": false,
      "inputs": [
        {
          "indexed": false,
          "name": "id",
          "type": "uint256"
        },
        {
          "indexed": false,
          "name": "name",
          "type": "string"
        },
        {
          "indexed": false,
          "name": "password",
          "type": "bytes32"
        }
      ],
      "name": "RegisterUser",
      "type": "event"
    }
  ],
  "bytecode": "0x6060604052341561000f57600080fd5b6103d88061001e6000396000f30060606040526004361061004c576000357c0100000000000000000000000000000000000000000000000000000000900463ffffffff168063a469a33214610051578063af640d0f14610109575b600080fd5b341561005c57600080fd5b6100ef600480803590602001908201803590602001908080601f0160208091040260200160405190810160405280939291908181526020018383808284378201915050505050509190803590602001908201803590602001908080601f01602080910402602001604051908101604052809392919081815260200183838082843782019150505050505091905050610132565b604051808215151515815260200191505060405180910390f35b341561011457600080fd5b61011c6102a9565b6040518082815260200191505060405180910390f35b60008060008451118015610147575060008351115b151561015257600080fd5b826040518082805190602001908083835b6020831015156101885780518252602082019150602081019050602083039250610163565b6001836020036101000a03801982511681845116808217855250505050505090500191505060405180910390209050600115156101c585836102af565b1515141561029d577f8cac37f79a7e9f55b7f3f924a6ce347133eed95e48d99335235aa5cb4bad33fe600054858360405180848152602001806020018360001916600019168152602001828103825284818151815260200191508051906020019080838360005b8381101561024757808201518184015260208101905061022c565b50505050905090810190601f1680156102745780820380516001836020036101000a031916815260200191505b5094505050505060405180910390a16000808154809291906001019190505550600191506102a2565b600091505b5092915050565b60005481565b600082600160008054815260200190815260200160002060000190805190602001906102dc929190610307565b5081600160008054815260200190815260200160002060010181600019169055506001905092915050565b828054600181600116156101000203166002900490600052602060002090601f016020900481019282601f1061034857805160ff1916838001178555610376565b82800160010185558215610376579182015b8281111561037557825182559160200191906001019061035a565b5b5090506103839190610387565b5090565b6103a991905b808211156103a557600081600090555060010161038d565b5090565b905600a165627a7a723058207aeb663ccdfc4c72561ef66833e84116446a083a9fbd2a0e28b474c4b694e9a40029",
  "source": "pragma solidity ^0.4.15;\n\ncontract UserContract {\n  uint public id;\n\n  struct User {\n    string name;\n    bytes32 password;\n  }\n\n  event RegisterUser(uint id, string name, bytes32 password);\n\n  mapping(uint => User) private users;\n\n  function signUp(string _name, string _strPassword) constant returns (bool){\n    require(bytes(_name).length > 0 && bytes(_strPassword).length > 0);\n    bytes32 _password = keccak256(_strPassword);\n    if (register(_name, _password) == true) {\n      RegisterUser(id, _name, _password);\n      id++;\n      return true;\n    }\n    return false;\n  }\n\n  function register(string _name, bytes32 _password) private constant returns (bool) {\n    users[id].name = _name;\n    users[id].password = _password;\n    return true;\n  }\n\n}\n",
  "sourcePath": "/Users/user1/Desktop/workspace/learn-solidity/practice/distributed-messanger-contract/contracts/User.sol",
  "compiler": {
    "name": "solc",
    "version": "0.4.18+commit.9cf6e910.Emscripten.clang"
  },
  "schemaVersion": "1.0.1",
  "updatedAt": "2017-11-07T09:58:35.386Z"
}