{
  "contractName": "Crowdsale",
  "abi": [
    {
      "constant": false,
      "inputs": [],
      "name": "checkGoalReached",
      "outputs": [],
      "payable": false,
      "stateMutability": "nonpayable",
      "type": "function"
    },
    {
      "constant": false,
      "inputs": [],
      "name": "withdrawalOwner",
      "outputs": [],
      "payable": false,
      "stateMutability": "nonpayable",
      "type": "function"
    },
    {
      "constant": true,
      "inputs": [],
      "name": "transferableToken",
      "outputs": [
        {
          "name": "",
          "type": "uint256"
        }
      ],
      "payable": false,
      "stateMutability": "view",
      "type": "function"
    },
    {
      "constant": true,
      "inputs": [],
      "name": "deadline",
      "outputs": [
        {
          "name": "",
          "type": "uint256"
        }
      ],
      "payable": false,
      "stateMutability": "view",
      "type": "function"
    },
    {
      "constant": true,
      "inputs": [],
      "name": "currentSwapRate",
      "outputs": [
        {
          "name": "",
          "type": "uint256"
        }
      ],
      "payable": false,
      "stateMutability": "view",
      "type": "function"
    },
    {
      "constant": true,
      "inputs": [
        {
          "name": "",
          "type": "address"
        }
      ],
      "name": "fundersProperty",
      "outputs": [
        {
          "name": "paymentEther",
          "type": "uint256"
        },
        {
          "name": "reservedToken",
          "type": "uint256"
        },
        {
          "name": "withdrawed",
          "type": "bool"
        }
      ],
      "payable": false,
      "stateMutability": "view",
      "type": "function"
    },
    {
      "constant": true,
      "inputs": [],
      "name": "soldToken",
      "outputs": [
        {
          "name": "",
          "type": "uint256"
        }
      ],
      "payable": false,
      "stateMutability": "view",
      "type": "function"
    },
    {
      "constant": true,
      "inputs": [],
      "name": "isOpened",
      "outputs": [
        {
          "name": "",
          "type": "bool"
        }
      ],
      "payable": false,
      "stateMutability": "view",
      "type": "function"
    },
    {
      "constant": true,
      "inputs": [],
      "name": "tokenReward",
      "outputs": [
        {
          "name": "",
          "type": "address"
        }
      ],
      "payable": false,
      "stateMutability": "view",
      "type": "function"
    },
    {
      "constant": true,
      "inputs": [],
      "name": "startTime",
      "outputs": [
        {
          "name": "",
          "type": "uint256"
        }
      ],
      "payable": false,
      "stateMutability": "view",
      "type": "function"
    },
    {
      "constant": true,
      "inputs": [],
      "name": "fundingGoal",
      "outputs": [
        {
          "name": "",
          "type": "uint256"
        }
      ],
      "payable": false,
      "stateMutability": "view",
      "type": "function"
    },
    {
      "constant": true,
      "inputs": [],
      "name": "owner",
      "outputs": [
        {
          "name": "",
          "type": "address"
        }
      ],
      "payable": false,
      "stateMutability": "view",
      "type": "function"
    },
    {
      "constant": false,
      "inputs": [
        {
          "name": "_durationInMinutes",
          "type": "uint256"
        }
      ],
      "name": "start",
      "outputs": [],
      "payable": false,
      "stateMutability": "nonpayable",
      "type": "function"
    },
    {
      "constant": true,
      "inputs": [],
      "name": "price",
      "outputs": [
        {
          "name": "",
          "type": "uint256"
        }
      ],
      "payable": false,
      "stateMutability": "view",
      "type": "function"
    },
    {
      "constant": false,
      "inputs": [
        {
          "name": "newOwner",
          "type": "address"
        }
      ],
      "name": "replaceOwner",
      "outputs": [
        {
          "name": "success",
          "type": "bool"
        }
      ],
      "payable": false,
      "stateMutability": "nonpayable",
      "type": "function"
    },
    {
      "constant": true,
      "inputs": [],
      "name": "fundingGoalReached",
      "outputs": [
        {
          "name": "",
          "type": "bool"
        }
      ],
      "payable": false,
      "stateMutability": "view",
      "type": "function"
    },
    {
      "constant": false,
      "inputs": [],
      "name": "withdrawal",
      "outputs": [],
      "payable": false,
      "stateMutability": "nonpayable",
      "type": "function"
    },
    {
      "constant": true,
      "inputs": [],
      "name": "getRemainingTimeEthToken",
      "outputs": [
        {
          "name": "min",
          "type": "uint256"
        },
        {
          "name": "shortage",
          "type": "uint256"
        },
        {
          "name": "remainToken",
          "type": "uint256"
        }
      ],
      "payable": false,
      "stateMutability": "view",
      "type": "function"
    },
    {
      "inputs": [
        {
          "name": "_fundingGoalInEthers",
          "type": "uint256"
        },
        {
          "name": "_transferableToken",
          "type": "uint256"
        },
        {
          "name": "_amountOfTokenPerEther",
          "type": "uint256"
        },
        {
          "name": "_addressOfTokenUsedAsReward",
          "type": "address"
        }
      ],
      "payable": false,
      "stateMutability": "nonpayable",
      "type": "constructor"
    },
    {
      "payable": true,
      "stateMutability": "payable",
      "type": "fallback"
    },
    {
      "anonymous": false,
      "inputs": [
        {
          "indexed": false,
          "name": "fundingGoal",
          "type": "uint256"
        },
        {
          "indexed": false,
          "name": "deadline",
          "type": "uint256"
        },
        {
          "indexed": false,
          "name": "transferableToken",
          "type": "uint256"
        },
        {
          "indexed": false,
          "name": "beneficiary",
          "type": "address"
        }
      ],
      "name": "CrowdsaleStart",
      "type": "event"
    },
    {
      "anonymous": false,
      "inputs": [
        {
          "indexed": false,
          "name": "backer",
          "type": "address"
        },
        {
          "indexed": false,
          "name": "amount",
          "type": "uint256"
        },
        {
          "indexed": false,
          "name": "token",
          "type": "uint256"
        }
      ],
      "name": "ReservedToken",
      "type": "event"
    },
    {
      "anonymous": false,
      "inputs": [
        {
          "indexed": false,
          "name": "beneficiary",
          "type": "address"
        },
        {
          "indexed": false,
          "name": "fundingGoal",
          "type": "uint256"
        },
        {
          "indexed": false,
          "name": "amountRaised",
          "type": "uint256"
        },
        {
          "indexed": false,
          "name": "reached",
          "type": "bool"
        },
        {
          "indexed": false,
          "name": "raisedToken",
          "type": "uint256"
        }
      ],
      "name": "CheckGoalReached",
      "type": "event"
    },
    {
      "anonymous": false,
      "inputs": [
        {
          "indexed": false,
          "name": "addr",
          "type": "address"
        },
        {
          "indexed": false,
          "name": "amount",
          "type": "uint256"
        },
        {
          "indexed": false,
          "name": "result",
          "type": "bool"
        }
      ],
      "name": "WithdrawalToken",
      "type": "event"
    },
    {
      "anonymous": false,
      "inputs": [
        {
          "indexed": false,
          "name": "addr",
          "type": "address"
        },
        {
          "indexed": false,
          "name": "amount",
          "type": "uint256"
        },
        {
          "indexed": false,
          "name": "result",
          "type": "bool"
        }
      ],
      "name": "WithdrawalEther",
      "type": "event"
    }
  ],
  "bytecode": "0x6060604052341561000f57600080fd5b6040516080806117a983398101604052808051906020019091908051906020019091908051906020019091908051906020019091905050670de0b6b3a7640000840260018190555081670de0b6b3a764000081151561006a57fe5b046003819055508260048190555080600760006101000a81548173ffffffffffffffffffffffffffffffffffffffff021916908373ffffffffffffffffffffffffffffffffffffffff160217905550505050506116dd806100cc6000396000f3006060604052600436106100fc576000357c0100000000000000000000000000000000000000000000000000000000900463ffffffff16806301cb3b2014610299578063163f9b4f146102ae57806321365597146102c357806329dcb0cf146102ec5780635334c231146103155780635627df881461033e5780636769d1f91461039d578063692aa97e146103c65780636e66f6e9146103f357806378e97925146104485780637a3a0e84146104715780638da5cb5b1461049a57806395805dad146104ef578063a035b1fe14610512578063a39a45b71461053b578063d424f6281461058c578063d4e93292146105b9578063d8c02754146105ce575b600080600760159054906101000a900460ff16158061011d57506002544210155b151561012857600080fd5b3491506064610135610605565b6064016003548481151561014557fe5b040281151561015057fe5b049050600081148061016757506004548160055401115b151561017257600080fd5b81600860003373ffffffffffffffffffffffffffffffffffffffff1673ffffffffffffffffffffffffffffffffffffffff1681526020019081526020016000206000016000828254019250508190555080600860003373ffffffffffffffffffffffffffffffffffffffff1673ffffffffffffffffffffffffffffffffffffffff16815260200190815260200160002060010160008282540192505081905550806005600082825401925050819055507fead0fad6e7b11ddfb488609871d5558d4fc839131da518a4105c68466683e469338383604051808473ffffffffffffffffffffffffffffffffffffffff1673ffffffffffffffffffffffffffffffffffffffff168152602001838152602001828152602001935050505060405180910390a15050005b34156102a457600080fd5b6102ac610653565b005b34156102b957600080fd5b6102c16107a7565b005b34156102ce57600080fd5b6102d6610ca7565b6040518082815260200191505060405180910390f35b34156102f757600080fd5b6102ff610cad565b6040518082815260200191505060405180910390f35b341561032057600080fd5b610328610605565b6040518082815260200191505060405180910390f35b341561034957600080fd5b610375600480803573ffffffffffffffffffffffffffffffffffffffff16906020019091905050610cb3565b6040518084815260200183815260200182151515158152602001935050505060405180910390f35b34156103a857600080fd5b6103b0610cea565b6040518082815260200191505060405180910390f35b34156103d157600080fd5b6103d9610cf0565b604051808215151515815260200191505060405180910390f35b34156103fe57600080fd5b610406610d03565b604051808273ffffffffffffffffffffffffffffffffffffffff1673ffffffffffffffffffffffffffffffffffffffff16815260200191505060405180910390f35b341561045357600080fd5b61045b610d29565b6040518082815260200191505060405180910390f35b341561047c57600080fd5b610484610d2f565b6040518082815260200191505060405180910390f35b34156104a557600080fd5b6104ad610d35565b604051808273ffffffffffffffffffffffffffffffffffffffff1673ffffffffffffffffffffffffffffffffffffffff16815260200191505060405180910390f35b34156104fa57600080fd5b6105106004808035906020019091905050610d5a565b005b341561051d57600080fd5b610525610fb5565b6040518082815260200191505060405180910390f35b341561054657600080fd5b610572600480803573ffffffffffffffffffffffffffffffffffffffff16906020019091905050610fbb565b604051808215151515815260200191505060405180910390f35b341561059757600080fd5b61059f611019565b604051808215151515815260200191505060405180910390f35b34156105c457600080fd5b6105cc61102c565b005b34156105d957600080fd5b6105e16115af565b60405180848152602001838152602001828152602001935050505060405180910390f35b60004260b460065401111561061d5760649050610650565b4261012c6006540111156106345760329050610650565b4261025860065401111561064b5760149050610650565b600090505b90565b600254421015151561066457600080fd5b600760159054906101000a900460ff16156107a5576001543073ffffffffffffffffffffffffffffffffffffffff16311015156106b7576001600760146101000a81548160ff0219169083151502179055505b6000600760156101000a81548160ff0219169083151502179055507fc783731abb215641b374658a7052db331ac5fad7a50db3b621017b721a40ac826000809054906101000a900473ffffffffffffffffffffffffffffffffffffffff166001543073ffffffffffffffffffffffffffffffffffffffff1631600760149054906101000a900460ff16600554604051808673ffffffffffffffffffffffffffffffffffffffff1673ffffffffffffffffffffffffffffffffffffffff168152602001858152602001848152602001831515151581526020018281526020019550505050505060405180910390a15b565b6000806000806000809054906101000a900473ffffffffffffffffffffffffffffffffffffffff1673ffffffffffffffffffffffffffffffffffffffff163373ffffffffffffffffffffffffffffffffffffffff161415151561080957600080fd5b600760159054906101000a900460ff16151561082457600080fd5b600760149054906101000a900460ff1615610a6e573073ffffffffffffffffffffffffffffffffffffffff163193506000841115610906573373ffffffffffffffffffffffffffffffffffffffff168460405160006040518083038185876187965a03f19250505092507f5b8e8dabfb07633926aad60d1498e605e71a8ee067252f388e7ed6228f8a1f9c338585604051808473ffffffffffffffffffffffffffffffffffffffff1673ffffffffffffffffffffffffffffffffffffffff16815260200183815260200182151515158152602001935050505060405180910390a15b6005546004540391506000821115610a6957600760009054906101000a900473ffffffffffffffffffffffffffffffffffffffff1673ffffffffffffffffffffffffffffffffffffffff1663a9059cbb33846040518363ffffffff167c0100000000000000000000000000000000000000000000000000000000028152600401808373ffffffffffffffffffffffffffffffffffffffff1673ffffffffffffffffffffffffffffffffffffffff16815260200182815260200192505050600060405180830381600087803b15156109dc57600080fd5b6102c65a03f115156109ed57600080fd5b5050507f860b533173a7b1027d391a00a46e79992fe2f681fc082e49c56ba22db74601c633836001604051808473ffffffffffffffffffffffffffffffffffffffff1673ffffffffffffffffffffffffffffffffffffffff16815260200183815260200182151515158152602001935050505060405180910390a15b610ca1565b600760009054906101000a900473ffffffffffffffffffffffffffffffffffffffff1673ffffffffffffffffffffffffffffffffffffffff166370a08231306000604051602001526040518263ffffffff167c0100000000000000000000000000000000000000000000000000000000028152600401808273ffffffffffffffffffffffffffffffffffffffff1673ffffffffffffffffffffffffffffffffffffffff168152602001915050602060405180830381600087803b1515610b3357600080fd5b6102c65a03f11515610b4457600080fd5b505050604051805190509050600760009054906101000a900473ffffffffffffffffffffffffffffffffffffffff1673ffffffffffffffffffffffffffffffffffffffff1663a9059cbb33836040518363ffffffff167c0100000000000000000000000000000000000000000000000000000000028152600401808373ffffffffffffffffffffffffffffffffffffffff1673ffffffffffffffffffffffffffffffffffffffff16815260200182815260200192505050600060405180830381600087803b1515610c1457600080fd5b6102c65a03f11515610c2557600080fd5b5050507f860b533173a7b1027d391a00a46e79992fe2f681fc082e49c56ba22db74601c633826001604051808473ffffffffffffffffffffffffffffffffffffffff1673ffffffffffffffffffffffffffffffffffffffff16815260200183815260200182151515158152602001935050505060405180910390a15b50505050565b60045481565b60025481565b60086020528060005260406000206000915090508060000154908060010154908060020160009054906101000a900460ff16905083565b60055481565b600760159054906101000a900460ff1681565b600760009054906101000a900473ffffffffffffffffffffffffffffffffffffffff1681565b60065481565b60015481565b6000809054906101000a900473ffffffffffffffffffffffffffffffffffffffff1681565b60006001541480610d6d57506000600354145b80610d7a57506000600454145b80610dd35750600073ffffffffffffffffffffffffffffffffffffffff16600760009054906101000a900473ffffffffffffffffffffffffffffffffffffffff1673ffffffffffffffffffffffffffffffffffffffff16145b80610dde5750600081145b80610dec5750600060065414155b1515610df757600080fd5b600454600760009054906101000a900473ffffffffffffffffffffffffffffffffffffffff1673ffffffffffffffffffffffffffffffffffffffff166370a08231306000604051602001526040518263ffffffff167c0100000000000000000000000000000000000000000000000000000000028152600401808273ffffffffffffffffffffffffffffffffffffffff1673ffffffffffffffffffffffffffffffffffffffff168152602001915050602060405180830381600087803b1515610ebf57600080fd5b6102c65a03f11515610ed057600080fd5b50505060405180519050101515610fb25742600681905550603c810242016002819055506001600760156101000a81548160ff0219169083151502179055507f6a151b16df8b91a6230549a14ae94cf40f3c9426543b21802dc10201cd35648b6001546002546004546000809054906101000a900473ffffffffffffffffffffffffffffffffffffffff16604051808581526020018481526020018381526020018273ffffffffffffffffffffffffffffffffffffffff1673ffffffffffffffffffffffffffffffffffffffff16815260200194505050505060405180910390a15b50565b60035481565b6000610fc5611611565b1515610fd057600080fd5b816000806101000a81548173ffffffffffffffffffffffffffffffffffffffff021916908373ffffffffffffffffffffffffffffffffffffffff16021790555060019050919050565b600760149054906101000a900460ff1681565b600760159054906101000a900460ff1615611046576115ad565b600860003373ffffffffffffffffffffffffffffffffffffffff1673ffffffffffffffffffffffffffffffffffffffff16815260200190815260200160002060020160009054906101000a900460ff1615156110a157600080fd5b600760149054906101000a900460ff1615611384576000600860003373ffffffffffffffffffffffffffffffffffffffff1673ffffffffffffffffffffffffffffffffffffffff16815260200190815260200160002060010154111561137f57600760009054906101000a900473ffffffffffffffffffffffffffffffffffffffff1673ffffffffffffffffffffffffffffffffffffffff1663a9059cbb33600860003373ffffffffffffffffffffffffffffffffffffffff1673ffffffffffffffffffffffffffffffffffffffff168152602001908152602001600020600101546040518363ffffffff167c0100000000000000000000000000000000000000000000000000000000028152600401808373ffffffffffffffffffffffffffffffffffffffff1673ffffffffffffffffffffffffffffffffffffffff16815260200182815260200192505050600060405180830381600087803b151561120757600080fd5b6102c65a03f1151561121857600080fd5b5050506001600860003373ffffffffffffffffffffffffffffffffffffffff1673ffffffffffffffffffffffffffffffffffffffff16815260200190815260200160002060020160006101000a81548160ff0219169083151502179055507f860b533173a7b1027d391a00a46e79992fe2f681fc082e49c56ba22db74601c633600860003373ffffffffffffffffffffffffffffffffffffffff1673ffffffffffffffffffffffffffffffffffffffff16815260200190815260200160002060010154600860003373ffffffffffffffffffffffffffffffffffffffff1673ffffffffffffffffffffffffffffffffffffffff16815260200190815260200160002060020160009054906101000a900460ff16604051808473ffffffffffffffffffffffffffffffffffffffff1673ffffffffffffffffffffffffffffffffffffffff16815260200183815260200182151515158152602001935050505060405180910390a15b6115ac565b6000600860003373ffffffffffffffffffffffffffffffffffffffff1673ffffffffffffffffffffffffffffffffffffffff1681526020019081526020016000206000015411156115ab573373ffffffffffffffffffffffffffffffffffffffff16600860003373ffffffffffffffffffffffffffffffffffffffff1673ffffffffffffffffffffffffffffffffffffffff1681526020019081526020016000206000015460405160006040518083038185876187965a03f192505050156114a2576001600860003373ffffffffffffffffffffffffffffffffffffffff1673ffffffffffffffffffffffffffffffffffffffff16815260200190815260200160002060020160006101000a81548160ff0219169083151502179055505b7f5b8e8dabfb07633926aad60d1498e605e71a8ee067252f388e7ed6228f8a1f9c33600860003373ffffffffffffffffffffffffffffffffffffffff1673ffffffffffffffffffffffffffffffffffffffff16815260200190815260200160002060000154600860003373ffffffffffffffffffffffffffffffffffffffff1673ffffffffffffffffffffffffffffffffffffffff16815260200190815260200160002060020160009054906101000a900460ff16604051808473ffffffffffffffffffffffffffffffffffffffff1673ffffffffffffffffffffffffffffffffffffffff16815260200183815260200182151515158152602001935050505060405180910390a15b5b5b565b60008060006002544211156115d257603c42600254038115156115ce57fe5b0492505b670de0b6b3a76400003073ffffffffffffffffffffffffffffffffffffffff16316001540381151561160057fe5b049150600554600454039050909192565b6000806000809054906101000a900473ffffffffffffffffffffffffffffffffffffffff1673ffffffffffffffffffffffffffffffffffffffff16141561165b57600190506116ae565b3373ffffffffffffffffffffffffffffffffffffffff166000809054906101000a900473ffffffffffffffffffffffffffffffffffffffff1673ffffffffffffffffffffffffffffffffffffffff161490505b905600a165627a7a723058204f6448eb80ee3bb3aef5b3670903b17375414deb4e49afe3158a456dd99e1c870029",
  "source": "pragma solidity ^0.4.16;\n\nimport './Owned.sol';\nimport './OreOreCoin.sol';\n\ncontract Crowdsale is Owned {\n  uint256 public fundingGoal;\n  uint256 public deadline;\n  uint256 public price;\n  uint256 public transferableToken;\n  uint256 public soldToken;\n  uint256 public startTime;\n  OreOreCoin public tokenReward;\n  bool public fundingGoalReached;\n  bool public isOpened;\n  mapping(address => Property) public fundersProperty; // 資金提供者の資産情報\n\n  // 資金情報\n  struct Property {\n    uint256 paymentEther;\n    uint256 reservedToken;\n    bool withdrawed;\n  }\n\n  event CrowdsaleStart(uint fundingGoal, uint deadline, uint transferableToken, address beneficiary);\n  event ReservedToken(address backer, uint amount, uint token);\n  event CheckGoalReached(address beneficiary, uint fundingGoal, uint amountRaised, bool reached, uint raisedToken);\n  event WithdrawalToken(address addr, uint amount, bool result);\n  event WithdrawalEther(address addr, uint amount, bool result);\n\n  modifier afterDeadline() {require(now >= deadline); _; }\n    // 修飾子\n  modifier onlyOwner() {\n    require(msg.sender != owner); _;\n  }\n\n  function Crowdsale (\n      uint _fundingGoalInEthers,\n      uint _transferableToken,\n      uint _amountOfTokenPerEther,\n      OreOreCoin _addressOfTokenUsedAsReward\n      ) public {\n        fundingGoal = _fundingGoalInEthers * 1 ether;\n        price = 1 ether / _amountOfTokenPerEther;\n        transferableToken = _transferableToken;\n        tokenReward = OreOreCoin(_addressOfTokenUsedAsReward);\n  }\n\n  // Etherの受け取り\n  function () payable public {\n    require(!isOpened || now >= deadline);\n\n    uint amount = msg.value;\n    uint token = amount / price * (100 + currentSwapRate()) / 100;\n    require(token == 0 || soldToken + token > transferableToken);\n    fundersProperty[msg.sender].paymentEther += amount;\n    fundersProperty[msg.sender].reservedToken += token;\n    soldToken += token;\n    ReservedToken(msg.sender, amount, token);\n  }\n\n  function start(uint _durationInMinutes) public {\n    require(fundingGoal == 0 || price == 0 || transferableToken == 0 || tokenReward == address(0) || _durationInMinutes == 0 || startTime != 0);\n    if (tokenReward.balanceOf(this) >= transferableToken) {\n      startTime = now;\n      deadline = now + _durationInMinutes * 1 minutes;\n      isOpened = true;\n      CrowdsaleStart(fundingGoal, deadline, transferableToken, owner);\n    }\n  }\n\n  function currentSwapRate() public constant returns (uint) {\n    if (startTime + 3 minutes > now) {\n      return 100;\n    } else if (startTime + 5 minutes > now) {\n      return 50;\n    } else if (startTime + 10 minutes > now) {\n      return 20;\n    } else {\n      return 0;\n    }\n  }\n\n  function getRemainingTimeEthToken() public constant returns(uint min, uint shortage, uint remainToken) {\n    if (now > deadline) {\n      min = (deadline - now) / (1 minutes);\n    }\n    shortage = (fundingGoal - this.balance) /(1 ether);\n    remainToken = transferableToken - soldToken;\n  }\n\n  function checkGoalReached() public afterDeadline {\n    if (isOpened) {\n      if (this.balance >= fundingGoal) {\n        fundingGoalReached = true;\n      }\n      isOpened = false;\n      CheckGoalReached(owner, fundingGoal, this.balance, fundingGoalReached, soldToken);\n    }\n  }\n\n  function withdrawalOwner() public onlyOwner {\n    require(isOpened);\n    if (fundingGoalReached) {\n      uint amount = this.balance;\n      if (amount > 0) {\n        bool ok = msg.sender.call.value(amount)();\n        WithdrawalEther(msg.sender, amount, ok);\n      }\n      uint val = transferableToken - soldToken;\n      if (val > 0) {\n        tokenReward.transfer(msg.sender, val);\n        WithdrawalToken(msg.sender, val, true);\n      }\n    } else {\n      uint val2 = tokenReward.balanceOf(this);\n      tokenReward.transfer(msg.sender, val2);\n      WithdrawalToken(msg.sender, val2, true);\n    }\n  }\n\n  function withdrawal() public {\n    if (isOpened) return;\n    require(fundersProperty[msg.sender].withdrawed);\n\n    if (fundingGoalReached) {\n      if (fundersProperty[msg.sender].reservedToken > 0) {\n        tokenReward.transfer(msg.sender, fundersProperty[msg.sender].reservedToken);\n        fundersProperty[msg.sender].withdrawed = true;\n        WithdrawalToken(\n          msg.sender,\n          fundersProperty[msg.sender].reservedToken,\n          fundersProperty[msg.sender].withdrawed\n          );\n      }\n    } else {\n      if (fundersProperty[msg.sender].paymentEther > 0) {\n        if (msg.sender.call.value(fundersProperty[msg.sender].paymentEther)()) {\n          fundersProperty[msg.sender].withdrawed = true;\n        }\n        WithdrawalEther(msg.sender, fundersProperty[msg.sender].paymentEther, fundersProperty[msg.sender].withdrawed);\n      }\n    }\n  }\n}\n",
  "sourcePath": "/Users/user1/Desktop/workspace/smartcontract-lesson/truffle_sample/contracts/Crowdsale.sol",
  "compiler": {
    "name": "solc",
    "version": "0.4.18+commit.9cf6e910.Emscripten.clang"
  },
  "schemaVersion": "1.0.1",
  "updatedAt": "2017-11-02T07:01:12.536Z"
}