{
  "contractName": "Owned",
  "abi": [
    {
      "constant": true,
      "inputs": [],
      "name": "owner",
      "outputs": [
        {
          "name": "",
          "type": "address"
        }
      ],
      "payable": false,
      "stateMutability": "view",
      "type": "function"
    },
    {
      "constant": false,
      "inputs": [
        {
          "name": "newOwner",
          "type": "address"
        }
      ],
      "name": "replaceOwner",
      "outputs": [
        {
          "name": "success",
          "type": "bool"
        }
      ],
      "payable": false,
      "stateMutability": "nonpayable",
      "type": "function"
    }
  ],
  "bytecode": "0x6060604052341561000f57600080fd5b6102468061001e6000396000f30060606040526004361061004c576000357c0100000000000000000000000000000000000000000000000000000000900463ffffffff1680638da5cb5b14610051578063a39a45b7146100a6575b600080fd5b341561005c57600080fd5b6100646100f7565b604051808273ffffffffffffffffffffffffffffffffffffffff1673ffffffffffffffffffffffffffffffffffffffff16815260200191505060405180910390f35b34156100b157600080fd5b6100dd600480803573ffffffffffffffffffffffffffffffffffffffff1690602001909190505061011c565b604051808215151515815260200191505060405180910390f35b6000809054906101000a900473ffffffffffffffffffffffffffffffffffffffff1681565b600061012661017a565b151561013157600080fd5b816000806101000a81548173ffffffffffffffffffffffffffffffffffffffff021916908373ffffffffffffffffffffffffffffffffffffffff16021790555060019050919050565b6000806000809054906101000a900473ffffffffffffffffffffffffffffffffffffffff1673ffffffffffffffffffffffffffffffffffffffff1614156101c45760019050610217565b3373ffffffffffffffffffffffffffffffffffffffff166000809054906101000a900473ffffffffffffffffffffffffffffffffffffffff1673ffffffffffffffffffffffffffffffffffffffff161490505b905600a165627a7a72305820da9fec183279d8935c9fe499960673185631327d96e3d7be6d32a1315ac74d560029",
  "source": "/*\n    owned.sol\n    1.0.0\n\n    Rajci 'iFA' Andor @ ifa@corion.io / ifa@ethereumlottery.net\n    CORION Platform\n*/\npragma solidity ^0.4.16;\n\ncontract Owned {\n  address public owner;\n  function replaceOwner(address newOwner) external returns(bool success) {\n    /*\n        Owner replace.\n\n        @newOwner   Address of new owner.\n\n        @success    Was the Function successful?\n    */\n    require( isOwner() );\n    owner = newOwner;\n    return true;\n  }\n\n  function isOwner() internal returns(bool) {\n    /*\n        Check of owner address.\n\n        @bool   Owner has called the contract or not\n    */\n    if ( owner == 0x00 ) {\n      return true;\n    }\n    return owner == msg.sender;\n  }\n}\n",
  "sourcePath": "/Users/user1/Desktop/workspace/smartcontract-lesson/truffle_sample/contracts/Owned.sol",
  "compiler": {
    "name": "solc",
    "version": "0.4.18+commit.9cf6e910.Emscripten.clang"
  },
  "schemaVersion": "1.0.1",
  "updatedAt": "2017-11-02T07:01:12.553Z"
}