{
  "contractName": "Crowdsale",
  "abi": [
    {
      "constant": false,
      "inputs": [],
      "name": "checkGoalReached",
      "outputs": [],
      "payable": false,
      "stateMutability": "nonpayable",
      "type": "function"
    },
    {
      "constant": false,
      "inputs": [],
      "name": "withdrawalOwner",
      "outputs": [
        {
          "name": "",
          "type": "string"
        }
      ],
      "payable": false,
      "stateMutability": "nonpayable",
      "type": "function"
    },
    {
      "constant": true,
      "inputs": [
        {
          "name": "",
          "type": "address"
        }
      ],
      "name": "transferableToken",
      "outputs": [
        {
          "name": "",
          "type": "uint256"
        }
      ],
      "payable": false,
      "stateMutability": "view",
      "type": "function"
    },
    {
      "constant": true,
      "inputs": [],
      "name": "deadline",
      "outputs": [
        {
          "name": "",
          "type": "uint256"
        }
      ],
      "payable": false,
      "stateMutability": "view",
      "type": "function"
    },
    {
      "constant": true,
      "inputs": [
        {
          "name": "_addr",
          "type": "address"
        }
      ],
      "name": "currentSwapRate",
      "outputs": [
        {
          "name": "",
          "type": "uint256"
        }
      ],
      "payable": false,
      "stateMutability": "view",
      "type": "function"
    },
    {
      "constant": true,
      "inputs": [
        {
          "name": "",
          "type": "address"
        }
      ],
      "name": "fundersProperty",
      "outputs": [
        {
          "name": "paymentEther",
          "type": "uint256"
        },
        {
          "name": "reservedToken",
          "type": "uint256"
        },
        {
          "name": "withdrawed",
          "type": "bool"
        }
      ],
      "payable": false,
      "stateMutability": "view",
      "type": "function"
    },
    {
      "constant": true,
      "inputs": [],
      "name": "soldToken",
      "outputs": [
        {
          "name": "",
          "type": "uint256"
        }
      ],
      "payable": false,
      "stateMutability": "view",
      "type": "function"
    },
    {
      "constant": true,
      "inputs": [],
      "name": "isOpened",
      "outputs": [
        {
          "name": "",
          "type": "bool"
        }
      ],
      "payable": false,
      "stateMutability": "view",
      "type": "function"
    },
    {
      "constant": true,
      "inputs": [],
      "name": "tokenReward",
      "outputs": [
        {
          "name": "",
          "type": "address"
        }
      ],
      "payable": false,
      "stateMutability": "view",
      "type": "function"
    },
    {
      "constant": true,
      "inputs": [
        {
          "name": "_member",
          "type": "address"
        }
      ],
      "name": "startTime",
      "outputs": [
        {
          "name": "",
          "type": "uint256"
        }
      ],
      "payable": false,
      "stateMutability": "view",
      "type": "function"
    },
    {
      "constant": true,
      "inputs": [
        {
          "name": "",
          "type": "uint256"
        }
      ],
      "name": "fundingGoal",
      "outputs": [
        {
          "name": "",
          "type": "uint256"
        },
        {
          "name": "times",
          "type": "uint256"
        },
        {
          "name": "sum",
          "type": "uint256"
        },
        {
          "name": "rate",
          "type": "int8"
        }
      ],
      "payable": false,
      "stateMutability": "view",
      "type": "function"
    },
    {
      "constant": true,
      "inputs": [
        {
          "name": "",
          "type": "address"
        }
      ],
      "name": "owner",
      "outputs": [
        {
          "name": "",
          "type": "address"
        }
      ],
      "payable": false,
      "stateMutability": "view",
      "type": "function"
    },
    {
      "constant": false,
      "inputs": [
        {
          "name": "_durationInMinutes",
          "type": "uint256"
        }
      ],
      "name": "start",
      "outputs": [
        {
          "name": "",
          "type": "uint256"
        }
      ],
      "payable": false,
      "stateMutability": "nonpayable",
      "type": "function"
    },
    {
      "constant": true,
      "inputs": [
        {
          "name": "",
          "type": "address"
        }
      ],
      "name": "price",
      "outputs": [
        {
          "name": "",
          "type": "uint256"
        },
        {
          "name": "reservedToken",
          "type": "uint256"
        },
        {
          "name": "withdrawed",
          "type": "bool"
        }
      ],
      "payable": false,
      "stateMutability": "view",
      "type": "function"
    },
    {
      "constant": true,
      "inputs": [],
      "name": "fundingGoalReached",
      "outputs": [
        {
          "name": "",
          "type": "bool"
        }
      ],
      "payable": false,
      "stateMutability": "view",
      "type": "function"
    },
    {
      "constant": false,
      "inputs": [],
      "name": "withdrawal",
      "outputs": [
        {
          "name": "",
          "type": "bool"
        }
      ],
      "payable": false,
      "stateMutability": "nonpayable",
      "type": "function"
    },
    {
      "constant": true,
      "inputs": [],
      "name": "getRemainingTimeEthToken",
      "outputs": [
        {
          "name": "min",
          "type": "uint256"
        },
        {
          "name": "shortage",
          "type": "uint256"
        },
        {
          "name": "remainToken",
          "type": "uint256"
        }
      ],
      "payable": false,
      "stateMutability": "view",
      "type": "function"
    },
    {
      "constant": false,
      "inputs": [
        {
          "name": "_new",
          "type": "address"
        }
      ],
      "name": "transferOwnership",
      "outputs": [
        {
          "name": "",
          "type": "uint256"
        }
      ],
      "payable": false,
      "stateMutability": "nonpayable",
      "type": "function"
    },
    {
      "constant": false,
      "inputs": [
        {
          "name": "_fundingGoalInEters",
          "type": "uint256"
        },
        {
          "name": "_transferableToken",
          "type": "uint256"
        },
        {
          "name": "_amountOfTokenPerEther",
          "type": "uint256"
        },
        {
          "name": "_addressOfTokenUsedAsReward",
          "type": "address"
        }
      ],
      "name": "updateHistory",
      "outputs": [],
      "payable": false,
      "stateMutability": "nonpayable",
      "type": "constructor"
    },
    {
      "constant": true,
      "inputs": [],
      "name": "startTime",
      "outputs": [
        {
          "name": "",
          "type": "uint256"
        }
      ],
      "payable": true,
      "stateMutability": "payable",
      "type": "fallback"
    },
    {
      "constant": true,
      "inputs": [
        {
          "indexed": false,
          "name": "fundingGoal",
          "type": "uint256"
        },
        {
          "indexed": false,
          "name": "deadline",
          "type": "uint256"
        },
        {
          "indexed": false,
          "name": "transferableToken",
          "type": "uint256"
        },
        {
          "indexed": false,
          "name": "beneficiary",
          "type": "address"
        }
      ],
      "name": "CrowdsaleStart",
      "outputs": [
        {
          "name": "",
          "type": "uint256"
        }
      ],
      "payable": false,
      "stateMutability": "view",
      "type": "event",
      "anonymous": false
    },
    {
      "constant": false,
      "inputs": [
        {
          "name": "backer",
          "type": "address",
          "indexed": false
        },
        {
          "indexed": false,
          "name": "amount",
          "type": "uint256"
        },
        {
          "indexed": false,
          "name": "token",
          "type": "uint256"
        }
      ],
      "name": "ReservedToken",
      "outputs": [],
      "payable": false,
      "stateMutability": "nonpayable",
      "type": "event",
      "anonymous": false
    },
    {
      "constant": true,
      "inputs": [
        {
          "indexed": false,
          "name": "beneficiary",
          "type": "address"
        },
        {
          "indexed": false,
          "name": "fundingGoal",
          "type": "uint256"
        },
        {
          "indexed": false,
          "name": "amountRaised",
          "type": "uint256"
        },
        {
          "indexed": false,
          "name": "reached",
          "type": "bool"
        },
        {
          "indexed": false,
          "name": "raisedToken",
          "type": "uint256"
        }
      ],
      "name": "CheckGoalReached",
      "outputs": [
        {
          "name": "",
          "type": "address"
        }
      ],
      "payable": false,
      "stateMutability": "view",
      "type": "event",
      "anonymous": false
    },
    {
      "constant": false,
      "inputs": [
        {
          "name": "addr",
          "type": "address",
          "indexed": false
        },
        {
          "indexed": false,
          "name": "amount",
          "type": "uint256"
        },
        {
          "indexed": false,
          "name": "result",
          "type": "bool"
        }
      ],
      "name": "WithdrawalToken",
      "outputs": [],
      "payable": false,
      "stateMutability": "nonpayable",
      "type": "event",
      "anonymous": false
    },
    {
      "constant": true,
      "inputs": [
        {
          "name": "addr",
          "type": "address",
          "indexed": false
        },
        {
          "indexed": false,
          "name": "amount",
          "type": "uint256"
        },
        {
          "indexed": false,
          "name": "result",
          "type": "bool"
        }
      ],
      "name": "WithdrawalEther",
      "outputs": [
        {
          "name": "times",
          "type": "uint256"
        },
        {
          "name": "sum",
          "type": "uint256"
        },
        {
          "name": "statusIndex",
          "type": "uint256"
        }
      ],
      "payable": false,
      "stateMutability": "view",
      "type": "event",
      "anonymous": false
    },
    {
      "constant": false,
      "inputs": [
        {
          "name": "oldaddr",
          "type": "address",
          "indexed": false
        },
        {
          "indexed": false,
          "name": "newaddr",
          "type": "address"
        }
      ],
      "name": "TransferOwnership",
      "outputs": [],
      "payable": false,
      "stateMutability": "nonpayable",
      "type": "event",
      "anonymous": false
    },
    {
      "constant": true,
      "inputs": [],
      "name": "symbol",
      "outputs": [
        {
          "name": "",
          "type": "string"
        }
      ],
      "payable": false,
      "stateMutability": "view",
      "type": "function"
    },
    {
      "constant": true,
      "inputs": [],
      "name": "price",
      "outputs": [
        {
          "name": "",
          "type": "uint256"
        }
      ],
      "payable": false,
      "stateMutability": "view",
      "type": "function"
    },
    {
      "constant": false,
      "inputs": [
        {
          "name": "_to",
          "type": "address"
        },
        {
          "name": "_value",
          "type": "uint256"
        }
      ],
      "name": "transfer",
      "outputs": [],
      "payable": false,
      "stateMutability": "nonpayable",
      "type": "function"
    },
    {
      "constant": true,
      "inputs": [],
      "name": "fundingGoalReached",
      "outputs": [
        {
          "name": "",
          "type": "bool"
        }
      ],
      "payable": false,
      "stateMutability": "view",
      "type": "function"
    },
    {
      "constant": false,
      "inputs": [],
      "name": "withdrawal",
      "outputs": [],
      "payable": false,
      "stateMutability": "nonpayable",
      "type": "function"
    },
    {
      "constant": true,
      "inputs": [],
      "name": "getRemainingTimeEthToken",
      "outputs": [
        {
          "name": "min",
          "type": "uint256"
        },
        {
          "name": "shortage",
          "type": "uint256"
        },
        {
          "name": "remainToken",
          "type": "uint256"
        }
      ],
      "payable": false,
      "stateMutability": "view",
      "type": "function"
    },
    {
      "constant": false,
      "inputs": [
        {
          "name": "_index",
          "type": "uint256"
        },
        {
          "name": "_name",
          "type": "string"
        },
        {
          "name": "_times",
          "type": "uint256"
        },
        {
          "name": "_sum",
          "type": "uint256"
        },
        {
          "name": "_rate",
          "type": "int8"
        }
      ],
      "name": "editStatus",
      "outputs": [],
      "payable": false,
      "stateMutability": "nonpayable",
      "type": "function"
    },
    {
      "constant": false,
      "inputs": [
        {
          "name": "_new",
          "type": "address"
        }
      ],
      "name": "transferOwnership",
      "outputs": [],
      "payable": false,
      "stateMutability": "nonpayable",
      "type": "function"
    },
    {
      "constant": false,
      "inputs": [
        {
          "name": "_members",
          "type": "address"
        }
      ],
      "name": "setMembers",
      "outputs": [],
      "payable": false,
      "stateMutability": "nonpayable",
      "type": "function"
    },
    {
      "constant": false,
      "inputs": [
        {
          "name": "_name",
          "type": "string"
        },
        {
          "name": "_times",
          "type": "uint256"
        },
        {
          "name": "_sum",
          "type": "uint256"
        },
        {
          "name": "_rate",
          "type": "int8"
        }
      ],
      "name": "pushStatus",
      "outputs": [],
      "payable": false,
      "stateMutability": "nonpayable",
      "type": "function"
    },
    {
      "constant": true,
      "inputs": [],
      "name": "token",
      "outputs": [
        {
          "name": "",
          "type": "address"
        }
      ],
      "payable": false,
      "stateMutability": "view",
      "type": "function"
    },
    {
      "inputs": [
        {
          "name": "_fundingGoalInEters",
          "type": "uint256"
        },
        {
          "name": "_transferableToken",
          "type": "uint256"
        },
        {
          "name": "_amountOfTokenPerEther",
          "type": "uint256"
        },
        {
          "name": "_addressOfTokenUsedAsReward",
          "type": "address"
        },
        {
          "name": "_fundingGoalInEters",
          "type": "uint256"
        },
        {
          "name": "_transferableToken",
          "type": "uint256"
        },
        {
          "name": "_amountOfTokenPerEther",
          "type": "uint256"
        },
        {
          "name": "_addressOfTokenUsedAsReward",
          "type": "address"
        }
      ],
      "payable": false,
      "stateMutability": "nonpayable",
      "type": "constructor"
    },
    {
      "payable": true,
      "stateMutability": "payable",
      "type": "fallback"
    },
    {
      "anonymous": false,
      "inputs": [
        {
          "indexed": false,
          "name": "fundingGoal",
          "type": "uint256"
        },
        {
          "indexed": false,
          "name": "deadline",
          "type": "uint256"
        },
        {
          "indexed": false,
          "name": "transferableToken",
          "type": "uint256"
        },
        {
          "indexed": false,
          "name": "beneficiary",
          "type": "address"
        }
      ],
      "name": "CrowdsaleStart",
      "type": "event"
    },
    {
      "anonymous": false,
      "inputs": [
        {
          "indexed": false,
          "name": "backer",
          "type": "address"
        },
        {
          "indexed": false,
          "name": "amount",
          "type": "uint256"
        },
        {
          "indexed": false,
          "name": "token",
          "type": "uint256"
        }
      ],
      "name": "ReservedToken",
      "type": "event"
    },
    {
      "anonymous": false,
      "inputs": [
        {
          "indexed": false,
          "name": "beneficiary",
          "type": "address"
        },
        {
          "indexed": false,
          "name": "fundingGoal",
          "type": "uint256"
        },
        {
          "indexed": false,
          "name": "amountRaised",
          "type": "uint256"
        },
        {
          "indexed": false,
          "name": "reached",
          "type": "bool"
        },
        {
          "indexed": false,
          "name": "raisedToken",
          "type": "uint256"
        }
      ],
      "name": "CheckGoalReached",
      "type": "event"
    },
    {
      "anonymous": false,
      "inputs": [
        {
          "indexed": false,
          "name": "addr",
          "type": "address"
        },
        {
          "indexed": false,
          "name": "amount",
          "type": "uint256"
        },
        {
          "indexed": false,
          "name": "result",
          "type": "bool"
        }
      ],
      "name": "WithdrawalToken",
      "type": "event"
    },
    {
      "anonymous": false,
      "inputs": [
        {
          "indexed": false,
          "name": "addr",
          "type": "address"
        },
        {
          "indexed": false,
          "name": "amount",
          "type": "uint256"
        },
        {
          "indexed": false,
          "name": "result",
          "type": "bool"
        }
      ],
      "name": "WithdrawalEther",
      "type": "event"
    },
    {
      "anonymous": false,
      "inputs": [
        {
          "indexed": true,
          "name": "from",
          "type": "address"
        },
        {
          "indexed": true,
          "name": "to",
          "type": "address"
        },
        {
          "indexed": false,
          "name": "value",
          "type": "uint256"
        }
      ],
      "name": "Transfer",
      "type": "event"
    },
    {
      "anonymous": false,
      "inputs": [
        {
          "indexed": true,
          "name": "target",
          "type": "address"
        }
      ],
      "name": "Blacklisted",
      "type": "event"
    },
    {
      "anonymous": false,
      "inputs": [
        {
          "indexed": true,
          "name": "target",
          "type": "address"
        }
      ],
      "name": "DeleteFromBlacklist",
      "type": "event"
    },
    {
      "anonymous": false,
      "inputs": [
        {
          "indexed": true,
          "name": "from",
          "type": "address"
        },
        {
          "indexed": true,
          "name": "to",
          "type": "address"
        },
        {
          "indexed": false,
          "name": "value",
          "type": "uint256"
        }
      ],
      "name": "RejectedPaymentToBlacklistedAddr",
      "type": "event"
    },
    {
      "anonymous": false,
      "inputs": [
        {
          "indexed": true,
          "name": "from",
          "type": "address"
        },
        {
          "indexed": true,
          "name": "to",
          "type": "address"
        },
        {
          "indexed": false,
          "name": "value",
          "type": "uint256"
        }
      ],
      "name": "RejectedPaymentFromBlacklistedAddr",
      "type": "event"
    },
    {
      "anonymous": false,
      "inputs": [
        {
          "indexed": true,
          "name": "from",
          "type": "address"
        },
        {
          "indexed": true,
          "name": "to",
          "type": "address"
        },
        {
          "indexed": false,
          "name": "value",
          "type": "uint256"
        }
      ],
      "name": "Cashback",
      "type": "event"
    },
    {
      "anonymous": false,
      "inputs": [
        {
          "indexed": false,
          "name": "oldaddr",
          "type": "address"
        },
        {
          "indexed": false,
          "name": "newaddr",
          "type": "address"
        }
      ],
      "name": "TransferOwnership",
      "type": "event"
    }
  ],
  "bytecode": "0x6060604052341561000f57600080fd5b6040516080806118b383398101604052808051906020019091908051906020019091908051906020019091908051906020019091905050336000806101000a81548173ffffffffffffffffffffffffffffffffffffffff021916908373ffffffffffffffffffffffffffffffffffffffff160217905550670de0b6b3a7640000840260018190555081670de0b6b3a76400008115156100aa57fe5b046003819055508260048190555080600760006101000a81548173ffffffffffffffffffffffffffffffffffffffff021916908373ffffffffffffffffffffffffffffffffffffffff160217905550505050506117a78061010c6000396000f3006060604052600436106100fc576000357c0100000000000000000000000000000000000000000000000000000000900463ffffffff16806301cb3b2014610299578063163f9b4f146102ae57806321365597146102c357806329dcb0cf146102ec5780635334c231146103155780635627df881461033e5780636769d1f91461039d578063692aa97e146103c65780636e66f6e9146103f357806378e97925146104485780637a3a0e84146104715780638da5cb5b1461049a57806395805dad146104ef578063a035b1fe14610512578063d424f6281461053b578063d4e9329214610568578063d8c027541461057d578063f2fde38b146105b4575b600080600760159054906101000a900460ff16158061011d57506002544210155b151561012857600080fd5b34915060646101356105ed565b6064016003548481151561014557fe5b040281151561015057fe5b049050600081148061016757506004548160055401115b151561017257600080fd5b81600860003373ffffffffffffffffffffffffffffffffffffffff1673ffffffffffffffffffffffffffffffffffffffff1681526020019081526020016000206000016000828254019250508190555080600860003373ffffffffffffffffffffffffffffffffffffffff1673ffffffffffffffffffffffffffffffffffffffff16815260200190815260200160002060010160008282540192505081905550806005600082825401925050819055507fead0fad6e7b11ddfb488609871d5558d4fc839131da518a4105c68466683e469338383604051808473ffffffffffffffffffffffffffffffffffffffff1673ffffffffffffffffffffffffffffffffffffffff168152602001838152602001828152602001935050505060405180910390a15050005b34156102a457600080fd5b6102ac61063b565b005b34156102b957600080fd5b6102c161078f565b005b34156102ce57600080fd5b6102d6610c95565b6040518082815260200191505060405180910390f35b34156102f757600080fd5b6102ff610c9b565b6040518082815260200191505060405180910390f35b341561032057600080fd5b6103286105ed565b6040518082815260200191505060405180910390f35b341561034957600080fd5b610375600480803573ffffffffffffffffffffffffffffffffffffffff16906020019091905050610ca1565b6040518084815260200183815260200182151515158152602001935050505060405180910390f35b34156103a857600080fd5b6103b0610cd8565b6040518082815260200191505060405180910390f35b34156103d157600080fd5b6103d9610cde565b604051808215151515815260200191505060405180910390f35b34156103fe57600080fd5b610406610cf1565b604051808273ffffffffffffffffffffffffffffffffffffffff1673ffffffffffffffffffffffffffffffffffffffff16815260200191505060405180910390f35b341561045357600080fd5b61045b610d17565b6040518082815260200191505060405180910390f35b341561047c57600080fd5b610484610d1d565b6040518082815260200191505060405180910390f35b34156104a557600080fd5b6104ad610d23565b604051808273ffffffffffffffffffffffffffffffffffffffff1673ffffffffffffffffffffffffffffffffffffffff16815260200191505060405180910390f35b34156104fa57600080fd5b6105106004808035906020019091905050610d48565b005b341561051d57600080fd5b610525610fff565b6040518082815260200191505060405180910390f35b341561054657600080fd5b61054e611005565b604051808215151515815260200191505060405180910390f35b341561057357600080fd5b61057b611018565b005b341561058857600080fd5b61059061159b565b60405180848152602001838152602001828152602001935050505060405180910390f35b34156105bf57600080fd5b6105eb600480803573ffffffffffffffffffffffffffffffffffffffff169060200190919050506115fd565b005b60004260b46006540111156106055760649050610638565b4261012c60065401111561061c5760329050610638565b426102586006540111156106335760149050610638565b600090505b90565b600254421015151561064c57600080fd5b600760159054906101000a900460ff161561078d576001543073ffffffffffffffffffffffffffffffffffffffff163110151561069f576001600760146101000a81548160ff0219169083151502179055505b6000600760156101000a81548160ff0219169083151502179055507fc783731abb215641b374658a7052db331ac5fad7a50db3b621017b721a40ac826000809054906101000a900473ffffffffffffffffffffffffffffffffffffffff166001543073ffffffffffffffffffffffffffffffffffffffff1631600760149054906101000a900460ff16600554604051808673ffffffffffffffffffffffffffffffffffffffff1673ffffffffffffffffffffffffffffffffffffffff168152602001858152602001848152602001831515151581526020018281526020019550505050505060405180910390a15b565b6000806000806000809054906101000a900473ffffffffffffffffffffffffffffffffffffffff1673ffffffffffffffffffffffffffffffffffffffff163373ffffffffffffffffffffffffffffffffffffffff16141515156107f157600080fd5b600760159054906101000a900460ff16151561080c57600080fd5b600760149054906101000a900460ff1615610a5c573073ffffffffffffffffffffffffffffffffffffffff1631935060008411156108ee573373ffffffffffffffffffffffffffffffffffffffff168460405160006040518083038185876187965a03f19250505092507f5b8e8dabfb07633926aad60d1498e605e71a8ee067252f388e7ed6228f8a1f9c338585604051808473ffffffffffffffffffffffffffffffffffffffff1673ffffffffffffffffffffffffffffffffffffffff16815260200183815260200182151515158152602001935050505060405180910390a15b6005546004540391506000821115610a5757600760009054906101000a900473ffffffffffffffffffffffffffffffffffffffff1673ffffffffffffffffffffffffffffffffffffffff1663a9059cbb33600554600454036040518363ffffffff167c0100000000000000000000000000000000000000000000000000000000028152600401808373ffffffffffffffffffffffffffffffffffffffff1673ffffffffffffffffffffffffffffffffffffffff16815260200182815260200192505050600060405180830381600087803b15156109ca57600080fd5b6102c65a03f115156109db57600080fd5b5050507f860b533173a7b1027d391a00a46e79992fe2f681fc082e49c56ba22db74601c633836001604051808473ffffffffffffffffffffffffffffffffffffffff1673ffffffffffffffffffffffffffffffffffffffff16815260200183815260200182151515158152602001935050505060405180910390a15b610c8f565b600760009054906101000a900473ffffffffffffffffffffffffffffffffffffffff1673ffffffffffffffffffffffffffffffffffffffff166370a08231306000604051602001526040518263ffffffff167c0100000000000000000000000000000000000000000000000000000000028152600401808273ffffffffffffffffffffffffffffffffffffffff1673ffffffffffffffffffffffffffffffffffffffff168152602001915050602060405180830381600087803b1515610b2157600080fd5b6102c65a03f11515610b3257600080fd5b505050604051805190509050600760009054906101000a900473ffffffffffffffffffffffffffffffffffffffff1673ffffffffffffffffffffffffffffffffffffffff1663a9059cbb33836040518363ffffffff167c0100000000000000000000000000000000000000000000000000000000028152600401808373ffffffffffffffffffffffffffffffffffffffff1673ffffffffffffffffffffffffffffffffffffffff16815260200182815260200192505050600060405180830381600087803b1515610c0257600080fd5b6102c65a03f11515610c1357600080fd5b5050507f860b533173a7b1027d391a00a46e79992fe2f681fc082e49c56ba22db74601c633826001604051808473ffffffffffffffffffffffffffffffffffffffff1673ffffffffffffffffffffffffffffffffffffffff16815260200183815260200182151515158152602001935050505060405180910390a15b50505050565b60045481565b60025481565b60086020528060005260406000206000915090508060000154908060010154908060020160009054906101000a900460ff16905083565b60055481565b600760159054906101000a900460ff1681565b600760009054906101000a900473ffffffffffffffffffffffffffffffffffffffff1681565b60065481565b60015481565b6000809054906101000a900473ffffffffffffffffffffffffffffffffffffffff1681565b6000809054906101000a900473ffffffffffffffffffffffffffffffffffffffff1673ffffffffffffffffffffffffffffffffffffffff163373ffffffffffffffffffffffffffffffffffffffff1614151515610da457600080fd5b60006001541480610db757506000600354145b80610dc457506000600454145b80610e1d5750600073ffffffffffffffffffffffffffffffffffffffff16600760009054906101000a900473ffffffffffffffffffffffffffffffffffffffff1673ffffffffffffffffffffffffffffffffffffffff16145b80610e285750600081145b80610e365750600060065414155b1515610e4157600080fd5b600454600760009054906101000a900473ffffffffffffffffffffffffffffffffffffffff1673ffffffffffffffffffffffffffffffffffffffff166370a08231306000604051602001526040518263ffffffff167c0100000000000000000000000000000000000000000000000000000000028152600401808273ffffffffffffffffffffffffffffffffffffffff1673ffffffffffffffffffffffffffffffffffffffff168152602001915050602060405180830381600087803b1515610f0957600080fd5b6102c65a03f11515610f1a57600080fd5b50505060405180519050101515610ffc5742600681905550603c810242016002819055506001600760156101000a81548160ff0219169083151502179055507f6a151b16df8b91a6230549a14ae94cf40f3c9426543b21802dc10201cd35648b6001546002546004546000809054906101000a900473ffffffffffffffffffffffffffffffffffffffff16604051808581526020018481526020018381526020018273ffffffffffffffffffffffffffffffffffffffff1673ffffffffffffffffffffffffffffffffffffffff16815260200194505050505060405180910390a15b50565b60035481565b600760149054906101000a900460ff1681565b600760159054906101000a900460ff161561103257611599565b600860003373ffffffffffffffffffffffffffffffffffffffff1673ffffffffffffffffffffffffffffffffffffffff16815260200190815260200160002060020160009054906101000a900460ff16151561108d57600080fd5b600760149054906101000a900460ff1615611370576000600860003373ffffffffffffffffffffffffffffffffffffffff1673ffffffffffffffffffffffffffffffffffffffff16815260200190815260200160002060010154111561136b57600760009054906101000a900473ffffffffffffffffffffffffffffffffffffffff1673ffffffffffffffffffffffffffffffffffffffff1663a9059cbb33600860003373ffffffffffffffffffffffffffffffffffffffff1673ffffffffffffffffffffffffffffffffffffffff168152602001908152602001600020600101546040518363ffffffff167c0100000000000000000000000000000000000000000000000000000000028152600401808373ffffffffffffffffffffffffffffffffffffffff1673ffffffffffffffffffffffffffffffffffffffff16815260200182815260200192505050600060405180830381600087803b15156111f357600080fd5b6102c65a03f1151561120457600080fd5b5050506001600860003373ffffffffffffffffffffffffffffffffffffffff1673ffffffffffffffffffffffffffffffffffffffff16815260200190815260200160002060020160006101000a81548160ff0219169083151502179055507f860b533173a7b1027d391a00a46e79992fe2f681fc082e49c56ba22db74601c633600860003373ffffffffffffffffffffffffffffffffffffffff1673ffffffffffffffffffffffffffffffffffffffff16815260200190815260200160002060010154600860003373ffffffffffffffffffffffffffffffffffffffff1673ffffffffffffffffffffffffffffffffffffffff16815260200190815260200160002060020160009054906101000a900460ff16604051808473ffffffffffffffffffffffffffffffffffffffff1673ffffffffffffffffffffffffffffffffffffffff16815260200183815260200182151515158152602001935050505060405180910390a15b611598565b6000600860003373ffffffffffffffffffffffffffffffffffffffff1673ffffffffffffffffffffffffffffffffffffffff168152602001908152602001600020600001541115611597573373ffffffffffffffffffffffffffffffffffffffff16600860003373ffffffffffffffffffffffffffffffffffffffff1673ffffffffffffffffffffffffffffffffffffffff1681526020019081526020016000206000015460405160006040518083038185876187965a03f1925050501561148e576001600860003373ffffffffffffffffffffffffffffffffffffffff1673ffffffffffffffffffffffffffffffffffffffff16815260200190815260200160002060020160006101000a81548160ff0219169083151502179055505b7f5b8e8dabfb07633926aad60d1498e605e71a8ee067252f388e7ed6228f8a1f9c33600860003373ffffffffffffffffffffffffffffffffffffffff1673ffffffffffffffffffffffffffffffffffffffff16815260200190815260200160002060000154600860003373ffffffffffffffffffffffffffffffffffffffff1673ffffffffffffffffffffffffffffffffffffffff16815260200190815260200160002060020160009054906101000a900460ff16604051808473ffffffffffffffffffffffffffffffffffffffff1673ffffffffffffffffffffffffffffffffffffffff16815260200183815260200182151515158152602001935050505060405180910390a15b5b5b565b60008060006002544210156115be57603c42600254038115156115ba57fe5b0492505b670de0b6b3a76400003073ffffffffffffffffffffffffffffffffffffffff1631600154038115156115ec57fe5b049150600554600454039050909192565b60008060009054906101000a900473ffffffffffffffffffffffffffffffffffffffff1673ffffffffffffffffffffffffffffffffffffffff163373ffffffffffffffffffffffffffffffffffffffff161415151561165b57600080fd5b6000809054906101000a900473ffffffffffffffffffffffffffffffffffffffff169050816000806101000a81548173ffffffffffffffffffffffffffffffffffffffff021916908373ffffffffffffffffffffffffffffffffffffffff1602179055507f5c486528ec3e3f0ea91181cff8116f02bfa350e03b8b6f12e00765adbb5af85c816000809054906101000a900473ffffffffffffffffffffffffffffffffffffffff16604051808373ffffffffffffffffffffffffffffffffffffffff1673ffffffffffffffffffffffffffffffffffffffff1681526020018273ffffffffffffffffffffffffffffffffffffffff1673ffffffffffffffffffffffffffffffffffffffff1681526020019250505060405180910390a150505600a165627a7a72305820f507e331b201cf71782ef5489c61ddc9b829c24693f9fa912e3f6d15872514220029",
  "source": "pragma solidity ^0.4.15;\n\nimport \"./TestToken.sol\";\nimport \"./lib/Owned.sol\";\n\ncontract Crowdsale is Owned {\n  uint256 public fundingGoal;\n  uint256 public deadline;\n  uint256 public price;\n  uint256 public transferableToken;\n  uint256 public soldToken;\n  uint256 public startTime;\n  TestToken public tokenReward;\n  bool public fundingGoalReached;\n  bool public isOpened;\n  mapping (address => Property) public fundersProperty;\n\n  struct Property {\n    uint256 paymentEther;\n    uint256 reservedToken;\n    bool withdrawed;\n  }\n\n  event CrowdsaleStart(uint256 fundingGoal, uint deadline, uint transferableToken, address beneficiary);\n  event ReservedToken(address backer, uint amount, uint token);\n  event CheckGoalReached(address beneficiary, uint fundingGoal, uint amountRaised, bool reached, uint raisedToken);\n  event WithdrawalToken(address addr, uint amount, bool result);\n  event WithdrawalEther(address addr, uint amount, bool result);\n\n  modifier afterDeadline() {\n    require(now >= deadline);\n    _;\n  }\n\n  function Crowdsale (\n    uint _fundingGoalInEters,\n    uint _transferableToken,\n    uint _amountOfTokenPerEther,\n    TestToken _addressOfTokenUsedAsReward\n  )\n  {\n    fundingGoal = _fundingGoalInEters * 1 ether;\n    price = 1 ether / _amountOfTokenPerEther;\n    transferableToken = _transferableToken;\n    tokenReward = TestToken(_addressOfTokenUsedAsReward);\n  }\n\n  function () payable {\n    require(!isOpened || now >= deadline);\n\n    uint amount = msg.value;\n    uint token = amount / price * (100 + currentSwapRate()) / 100;\n    require(token == 0 || soldToken + token > transferableToken);\n\n    fundersProperty[msg.sender].paymentEther += amount;\n    fundersProperty[msg.sender].reservedToken += token;\n    soldToken += token;\n    ReservedToken(msg.sender, amount, token);\n  }\n\n  function start(uint _durationInMinutes) onlyOwner {\n    require(fundingGoal == 0 || price == 0 || transferableToken == 0 || tokenReward == address(0) || _durationInMinutes == 0 || startTime != 0);\n    if (tokenReward.balanceOf(this) >= transferableToken) {\n      startTime = now;\n      deadline = now + _durationInMinutes * 1 minutes;\n      isOpened = true;\n      CrowdsaleStart(fundingGoal, deadline, transferableToken, owner);\n    }\n  }\n\n  function currentSwapRate() constant returns(uint) {\n    if (startTime + 3 minutes > now) {\n      return 100;\n    } else if (startTime + 5 minutes > now) {\n      return 50;\n    } else if (startTime + 10 minutes > now) {\n      return 20;\n    } else {\n      return 0;\n    }\n  }\n\n  function getRemainingTimeEthToken() constant returns(uint min, uint shortage, uint remainToken) {\n    if (now < deadline) {\n      min = (deadline - now) / (1 minutes);\n    }\n    shortage = (fundingGoal - this.balance) / (1 ether);\n    remainToken = transferableToken- soldToken;\n  }\n\n  function checkGoalReached() afterDeadline {\n    if (isOpened) {\n      if (this.balance >= fundingGoal) {\n        fundingGoalReached = true;\n      }\n      isOpened = false;\n      CheckGoalReached(owner, fundingGoal, this.balance, fundingGoalReached, soldToken);\n    }\n  }\n\n  function withdrawalOwner() onlyOwner {\n    require(isOpened);\n\n    if (fundingGoalReached) {\n      uint amount = this.balance;\n      if (amount > 0) {\n        bool ok = msg.sender.call.value(amount)();\n        WithdrawalEther(msg.sender, amount, ok);\n      }\n      uint val = transferableToken - soldToken;\n      if (val > 0) {\n        tokenReward.transfer(msg.sender, transferableToken - soldToken);\n        WithdrawalToken(msg.sender, val, true);\n      }\n    } else {\n      uint val2 = tokenReward.balanceOf(this);\n      tokenReward.transfer(msg.sender, val2);\n      WithdrawalToken(msg.sender, val2, true);\n    }\n  }\n\n  function withdrawal() {\n    if (isOpened) return;\n\n    require(fundersProperty[msg.sender].withdrawed);\n\n    if (fundingGoalReached) {\n      if (fundersProperty[msg.sender].reservedToken > 0) {\n        tokenReward.transfer(msg.sender, fundersProperty[msg.sender].reservedToken);\n        fundersProperty[msg.sender].withdrawed = true;\n        WithdrawalToken(\n          msg.sender,\n          fundersProperty[msg.sender].reservedToken,\n          fundersProperty[msg.sender].withdrawed\n        );\n      }\n    } else {\n      if (fundersProperty[msg.sender].paymentEther > 0) {\n        if (msg.sender.call.value(fundersProperty[msg.sender].paymentEther)()) {\n          fundersProperty[msg.sender].withdrawed = true;\n        }\n        WithdrawalEther(\n          msg.sender,\n          fundersProperty[msg.sender].paymentEther,\n          fundersProperty[msg.sender].withdrawed\n        );\n      }\n    }\n  }\n}\n",
  "sourcePath": "/Users/shikitakahashi/workspace/learn-solidity/practice/crowdsale/contracts/Crowdsale.sol",
  "compiler": {
    "name": "solc",
    "version": "0.4.18+commit.9cf6e910.Emscripten.clang"
  },
  "schemaVersion": "1.0.1",
  "updatedAt": "2017-11-19T05:23:46.453Z"
}