{
  "contractName": "Members",
  "abi": [
    {
      "constant": false,
      "inputs": [
        {
          "name": "_addr",
          "type": "address"
        }
      ],
      "name": "setToken",
      "outputs": [],
      "payable": false,
      "stateMutability": "nonpayable",
      "type": "function"
    },
    {
      "constant": true,
      "inputs": [
        {
          "name": "_member",
          "type": "address"
        }
      ],
      "name": "getCashbackRate",
      "outputs": [
        {
          "name": "rate",
          "type": "int8"
        }
      ],
      "payable": false,
      "stateMutability": "view",
      "type": "function"
    },
    {
      "constant": true,
      "inputs": [
        {
          "name": "",
          "type": "uint256"
        }
      ],
      "name": "status",
      "outputs": [
        {
          "name": "name",
          "type": "string"
        },
        {
          "name": "times",
          "type": "uint256"
        },
        {
          "name": "sum",
          "type": "uint256"
        },
        {
          "name": "rate",
          "type": "int8"
        }
      ],
      "payable": false,
      "stateMutability": "view",
      "type": "function"
    },
    {
      "constant": false,
      "inputs": [
        {
          "name": "_member",
          "type": "address"
        },
        {
          "name": "_value",
          "type": "uint256"
        }
      ],
      "name": "updateHistory",
      "outputs": [],
      "payable": false,
      "stateMutability": "nonpayable",
      "type": "function"
    },
    {
      "constant": true,
      "inputs": [],
      "name": "owner",
      "outputs": [
        {
          "name": "",
          "type": "address"
        }
      ],
      "payable": false,
      "stateMutability": "view",
      "type": "function"
    },
    {
      "constant": true,
      "inputs": [
        {
          "name": "",
          "type": "address"
        }
      ],
      "name": "tradingHistory",
      "outputs": [
        {
          "name": "times",
          "type": "uint256"
        },
        {
          "name": "sum",
          "type": "uint256"
        },
        {
          "name": "statusIndex",
          "type": "uint256"
        }
      ],
      "payable": false,
      "stateMutability": "view",
      "type": "function"
    },
    {
      "constant": false,
      "inputs": [
        {
          "name": "_index",
          "type": "uint256"
        },
        {
          "name": "_name",
          "type": "string"
        },
        {
          "name": "_times",
          "type": "uint256"
        },
        {
          "name": "_sum",
          "type": "uint256"
        },
        {
          "name": "_rate",
          "type": "int8"
        }
      ],
      "name": "editStatus",
      "outputs": [],
      "payable": false,
      "stateMutability": "nonpayable",
      "type": "function"
    },
    {
      "constant": false,
      "inputs": [
        {
          "name": "_new",
          "type": "address"
        }
      ],
      "name": "transferOwnership",
      "outputs": [],
      "payable": false,
      "stateMutability": "nonpayable",
      "type": "function"
    },
    {
      "constant": false,
      "inputs": [
        {
          "name": "_name",
          "type": "string"
        },
        {
          "name": "_times",
          "type": "uint256"
        },
        {
          "name": "_sum",
          "type": "uint256"
        },
        {
          "name": "_rate",
          "type": "int8"
        }
      ],
      "name": "pushStatus",
      "outputs": [],
      "payable": false,
      "stateMutability": "nonpayable",
      "type": "function"
    },
    {
      "constant": true,
      "inputs": [],
      "name": "token",
      "outputs": [
        {
          "name": "",
          "type": "address"
        }
      ],
      "payable": false,
      "stateMutability": "view",
      "type": "function"
    },
    {
      "anonymous": false,
      "inputs": [
        {
          "indexed": false,
          "name": "oldaddr",
          "type": "address"
        },
        {
          "indexed": false,
          "name": "newaddr",
          "type": "address"
        }
      ],
      "name": "TransferOwnership",
      "type": "event"
    }
  ],
  "bytecode": "0x6060604052336000806101000a81548173ffffffffffffffffffffffffffffffffffffffff021916908373ffffffffffffffffffffffffffffffffffffffff160217905550610ebb806100536000396000f3006060604052600436106100a4576000357c0100000000000000000000000000000000000000000000000000000000900463ffffffff168063144fa6d7146100a9578063390c5874146100e257806342d21ef714610135578063777aff7d146102095780638da5cb5b1461024b57806394c3ab56146102a0578063dca9fd5b146102fb578063f2fde38b1461037f578063f7ac5611146103b8578063fc0c546a14610433575b600080fd5b34156100b457600080fd5b6100e0600480803573ffffffffffffffffffffffffffffffffffffffff16906020019091905050610488565b005b34156100ed57600080fd5b610119600480803573ffffffffffffffffffffffffffffffffffffffff16906020019091905050610528565b604051808260000b60000b815260200191505060405180910390f35b341561014057600080fd5b61015660048080359060200190919050506105a1565b60405180806020018581526020018481526020018360000b60000b81526020018281038252868181546001816001161561010002031660029004815260200191508054600181600116156101000203166002900480156101f75780601f106101cc576101008083540402835291602001916101f7565b820191906000526020600020905b8154815290600101906020018083116101da57829003601f168201915b50509550505050505060405180910390f35b341561021457600080fd5b610249600480803573ffffffffffffffffffffffffffffffffffffffff169060200190919080359060200190919050506105ec565b005b341561025657600080fd5b61025e610876565b604051808273ffffffffffffffffffffffffffffffffffffffff1673ffffffffffffffffffffffffffffffffffffffff16815260200191505060405180910390f35b34156102ab57600080fd5b6102d7600480803573ffffffffffffffffffffffffffffffffffffffff1690602001909190505061089b565b60405180848152602001838152602001828152602001935050505060405180910390f35b341561030657600080fd5b61037d600480803590602001909190803590602001908201803590602001908080601f0160208091040260200160405190810160405280939291908181526020018383808284378201915050505050509190803590602001909190803590602001909190803560000b9060200190919050506108c5565b005b341561038a57600080fd5b6103b6600480803573ffffffffffffffffffffffffffffffffffffffff169060200190919050506109f1565b005b34156103c357600080fd5b610431600480803590602001908201803590602001908080601f0160208091040260200160405190810160405280939291908181526020018383808284378201915050505050509190803590602001909190803590602001909190803560000b906020019091905050610b6f565b005b341561043e57600080fd5b610446610c77565b604051808273ffffffffffffffffffffffffffffffffffffffff1673ffffffffffffffffffffffffffffffffffffffff16815260200191505060405180910390f35b6000809054906101000a900473ffffffffffffffffffffffffffffffffffffffff1673ffffffffffffffffffffffffffffffffffffffff163373ffffffffffffffffffffffffffffffffffffffff16141515156104e457600080fd5b80600160006101000a81548173ffffffffffffffffffffffffffffffffffffffff021916908373ffffffffffffffffffffffffffffffffffffffff16021790555050565b60006002600360008473ffffffffffffffffffffffffffffffffffffffff1673ffffffffffffffffffffffffffffffffffffffff1681526020019081526020016000206002015481548110151561057b57fe5b906000526020600020906004020160030160009054906101000a900460000b9050919050565b6002818154811015156105b057fe5b906000526020600020906004020160009150905080600001908060010154908060020154908060030160009054906101000a900460000b905084565b6000806000600160009054906101000a900473ffffffffffffffffffffffffffffffffffffffff1673ffffffffffffffffffffffffffffffffffffffff163373ffffffffffffffffffffffffffffffffffffffff1614151561064d57600080fd5b6001600360008773ffffffffffffffffffffffffffffffffffffffff1673ffffffffffffffffffffffffffffffffffffffff1681526020019081526020016000206000016000828254019250508190555083600360008773ffffffffffffffffffffffffffffffffffffffff1673ffffffffffffffffffffffffffffffffffffffff16815260200190815260200160002060010160008282540192505081905550600090505b6002805490508110156108285760028181548110151561070f57fe5b906000526020600020906004020160010154600360008773ffffffffffffffffffffffffffffffffffffffff1673ffffffffffffffffffffffffffffffffffffffff16815260200190815260200160002060000154101580156107d4575060028181548110151561077c57fe5b906000526020600020906004020160020154600360008773ffffffffffffffffffffffffffffffffffffffff1673ffffffffffffffffffffffffffffffffffffffff1681526020019081526020016000206001015410155b801561081257506002818154811015156107ea57fe5b906000526020600020906004020160030160009054906101000a900460000b60000b8260000b125b1561081b578092505b80806001019150506106f3565b82600360008773ffffffffffffffffffffffffffffffffffffffff1673ffffffffffffffffffffffffffffffffffffffff168152602001908152602001600020600201819055505050505050565b6000809054906101000a900473ffffffffffffffffffffffffffffffffffffffff1681565b60036020528060005260406000206000915090508060000154908060010154908060020154905083565b6000809054906101000a900473ffffffffffffffffffffffffffffffffffffffff1673ffffffffffffffffffffffffffffffffffffffff163373ffffffffffffffffffffffffffffffffffffffff161415151561092157600080fd5b6002805490508510156109ea578360028681548110151561093e57fe5b90600052602060002090600402016000019080519060200190610962929190610c9d565b508260028681548110151561097357fe5b9060005260206000209060040201600101819055508160028681548110151561099857fe5b906000526020600020906004020160020181905550806002868154811015156109bd57fe5b906000526020600020906004020160030160006101000a81548160ff021916908360000b60ff1602179055505b5050505050565b60008060009054906101000a900473ffffffffffffffffffffffffffffffffffffffff1673ffffffffffffffffffffffffffffffffffffffff163373ffffffffffffffffffffffffffffffffffffffff1614151515610a4f57600080fd5b6000809054906101000a900473ffffffffffffffffffffffffffffffffffffffff169050816000806101000a81548173ffffffffffffffffffffffffffffffffffffffff021916908373ffffffffffffffffffffffffffffffffffffffff1602179055507f5c486528ec3e3f0ea91181cff8116f02bfa350e03b8b6f12e00765adbb5af85c816000809054906101000a900473ffffffffffffffffffffffffffffffffffffffff16604051808373ffffffffffffffffffffffffffffffffffffffff1673ffffffffffffffffffffffffffffffffffffffff1681526020018273ffffffffffffffffffffffffffffffffffffffff1673ffffffffffffffffffffffffffffffffffffffff1681526020019250505060405180910390a15050565b6000809054906101000a900473ffffffffffffffffffffffffffffffffffffffff1673ffffffffffffffffffffffffffffffffffffffff163373ffffffffffffffffffffffffffffffffffffffff1614151515610bcb57600080fd5b60028054806001018281610bdf9190610d1d565b916000526020600020906004020160006080604051908101604052808881526020018781526020018681526020018560000b81525090919091506000820151816000019080519060200190610c35929190610d4f565b50602082015181600101556040820151816002015560608201518160030160006101000a81548160ff021916908360000b60ff16021790555050505050505050565b600160009054906101000a900473ffffffffffffffffffffffffffffffffffffffff1681565b828054600181600116156101000203166002900490600052602060002090601f016020900481019282601f10610cde57805160ff1916838001178555610d0c565b82800160010185558215610d0c579182015b82811115610d0b578251825591602001919060010190610cf0565b5b509050610d199190610dcf565b5090565b815481835581811511610d4a57600402816004028360005260206000209182019101610d499190610df4565b5b505050565b828054600181600116156101000203166002900490600052602060002090601f016020900481019282601f10610d9057805160ff1916838001178555610dbe565b82800160010185558215610dbe579182015b82811115610dbd578251825591602001919060010190610da2565b5b509050610dcb9190610dcf565b5090565b610df191905b80821115610ded576000816000905550600101610dd5565b5090565b90565b610e4491905b80821115610e405760008082016000610e139190610e47565b600182016000905560028201600090556003820160006101000a81549060ff021916905550600401610dfa565b5090565b90565b50805460018160011615610100020316600290046000825580601f10610e6d5750610e8c565b601f016020900490600052602060002090810190610e8b9190610dcf565b5b505600a165627a7a72305820a46ad540349bf9c636c41d4e6c0c567d215fc51623660c285eb0e5616683cf300029",
  "source": "pragma solidity ^0.4.15;\n\nimport \"./lib/Owned.sol\";\n\ncontract Members is Owned {\n  address public token;\n  MemberStatus[] public status;\n  mapping (address => History) public tradingHistory;\n\n  struct MemberStatus {\n    string name;\n    uint256 times;\n    uint256 sum;\n    int8 rate;\n  }\n\n  struct History {\n    uint256 times;\n    uint256 sum;\n    uint256 statusIndex;\n  }\n\n  modifier onlyToken() {\n    require(msg.sender == token);\n    _;\n  }\n\n  function setToken(address _addr) onlyOwner {\n    token = _addr;\n  }\n\n  function pushStatus(string _name, uint256 _times, uint256 _sum, int8 _rate) onlyOwner {\n    status.push(MemberStatus({\n      name: _name,\n      times: _times,\n      sum: _sum,\n      rate: _rate\n    }));\n  }\n\n  function editStatus(uint256 _index, string _name, uint256 _times, uint256 _sum, int8 _rate) onlyOwner {\n    if (_index < status.length) {\n      status[_index].name = _name;\n      status[_index].times = _times;\n      status[_index].sum = _sum;\n      status[_index].rate = _rate;\n    }\n  }\n\n  function updateHistory(address _member, uint256 _value) onlyToken {\n    tradingHistory[_member].times += 1;\n    tradingHistory[_member].sum += _value;\n\n    uint256 index;\n    int8 tmprate;\n    for (uint i = 0; i < status.length; i++) {\n      if (tradingHistory[_member].times >= status[i].times &&\n          tradingHistory[_member].sum >= status[i].sum &&\n          tmprate < status[i].rate) {\n            index = i;\n      }\n    }\n    tradingHistory[_member].statusIndex = index;\n  }\n\n  function getCashbackRate(address _member) constant returns (int8 rate) {\n    rate = status[tradingHistory[_member].statusIndex].rate;\n  }\n}\n",
  "sourcePath": "/Users/shikitakahashi/workspace/learn-solidity/practice/crowdsale/contracts/Members.sol",
  "compiler": {
    "name": "solc",
    "version": "0.4.18+commit.9cf6e910.Emscripten.clang"
  },
  "schemaVersion": "1.0.1",
  "updatedAt": "2017-11-19T04:24:20.520Z"
}